C51 COMPILER V9.54   MULTIBUTTON                                                           04/10/2024 10:01:52 PAGE 1   


C51 COMPILER V9.54, COMPILATION OF MODULE MULTIBUTTON
OBJECT MODULE PLACED IN .\Objects\multibutton.obj
COMPILER INVOKED BY: D:\keil5\C51\BIN\C51.EXE SAL\multibutton.c LARGE OPTIMIZE(8,SPEED) BROWSE INCDIR(.\APP;.\bsp;.\SAL;
                    -..\MyNewPro_v0.1) DEBUG OBJECTEXTEND PRINT(.\Listings\multibutton.lst) OBJECT(.\Objects\multibutton.obj)

line level    source

   1          #include  "sys_config.h"
   2          
   3          #if defined  (USE_MULTIBUTTON)
   4          #include "multibutton.h"
   5          
   6          
   7          static xdata struct button* head_handle = NULL;
   8          
   9          /*****初始化按键*******/
  10          void ButtonInit(button *handle, uint8_t(*pin_level)(void), uint8_t active_level,uint16_t long_ticks)
  11          {
  12   1          memset(handle, 0, sizeof(button));
  13   1          handle->Hal_button_level = pin_level;
  14   1          handle->active_gpio_state = active_level;
  15   1                handle->long_ticks = long_ticks;
  16   1      }
  17          
  18          static void ButtonHandler(button *handle)
  19          {
  20   1         uint8_t gpio_state = handle->Hal_button_level();
  21   1              
  22   1         handle->event = NONE_ButEvent;
  23   1         if(gpio_state == handle->active_gpio_state)//按键按下
  24   1         {
  25   2                       if(handle->startPressFlag)//按键上次也处于按下状态
  26   2                       {
  27   3                               if(++handle->press_cnts >= handle->long_ticks)
  28   3                               {
  29   4                                       handle->press_cnts = handle->long_ticks;//防止数据溢出
  30   4                                       if(handle->longPressFlag == 0)
  31   4                                       {
  32   5                                               handle->longPressFlag = 1;
  33   5                                               handle->event = LONG_PRESS_START;//获得按键长按事件
  34   5                                       }
  35   4                                       else
  36   4                                       {
  37   5                                                       handle->event = LONG_PRESS_HOLD;//获得按键长按持续事件
  38   5                                       }
  39   4                               }
  40   3                       }
  41   2                       
  42   2           if(handle->pressFlag == 0)//按键从抬起变为按下
  43   2                 {
  44   3                         handle->event = PRESS_DOWN;//获得按键按下事件
  45   3                   handle->startPressFlag = 1;//标记按键开始按下
  46   3                 }
  47   2           handle->pressFlag = 1;
  48   2         }
  49   1         else
  50   1         {
  51   2                       if(handle->pressFlag == 1)//抬起同时按键被按下过
  52   2                       {
  53   3                               handle->pressFlag = 0;
  54   3                               if(handle->longPressFlag == 0){//短按后的弹起
C51 COMPILER V9.54   MULTIBUTTON                                                           04/10/2024 10:01:52 PAGE 2   

  55   4                                              handle->event = PRESS_UP;   //获得按键短按后弹起事件
  56   4                               }
  57   3                               else{//长按后的弹起
  58   4                                              handle->longPressFlag = 0;
  59   4                                        handle->event = PRESS_AFTER_LONG;
  60   4                               }
  61   3                       
  62   3                       }
  63   2                       else
  64   2                       {
  65   3                               handle->longPressFlag = 0;
  66   3                               handle->startPressFlag = 0;
  67   3                               handle->press_cnts = 0;
  68   3                       }
  69   2         }
  70   1      
  71   1      }
  72          
  73          int ButtonStart(struct button* handle)
  74          {
  75   1          struct button* target = head_handle;
  76   1          
  77   1          while(target) 
  78   1          {
  79   2              if(target == handle) 
  80   2              {
  81   3                  return -1;  //already exist.
  82   3              }
  83   2              
  84   2              target = target->next;
  85   2          }
  86   1          
  87   1          handle->next = head_handle;
  88   1          head_handle = handle;
  89   1          
  90   1          return 0;
  91   1      }
  92          
  93          void ButtonStop(struct button* handle)//删除节点
  94          {
  95   1          struct button** curr;
  96   1          
  97   1          for(curr = &head_handle; *curr;) 
  98   1          {
  99   2              struct button* entry = *curr;
 100   2              
 101   2              if (entry == handle) 
 102   2              {
 103   3                  *curr = entry->next;
 104   3              } 
 105   2              else
 106   2              {
 107   3                  curr = &entry->next;
 108   3              }
 109   2          }
 110   1      }
 111          
 112          PressEvent GetButtonEvent(struct button* handle)
 113          {
 114   1          return (PressEvent)(handle->event);
 115   1      }
 116          
C51 COMPILER V9.54   MULTIBUTTON                                                           04/10/2024 10:01:52 PAGE 3   

 117          void ButtonScan(void)
 118          {
 119   1          struct button* target;
 120   1          
 121   1          for(target = head_handle; target != NULL; target = target->next)
 122   1          {
 123   2              ButtonHandler(target);
 124   2          }
 125   1      }
 126          
 127          
 128          
 129          
 130          
 131          #endif
 132          
 133          
 134          
 135          


MODULE INFORMATION:   STATIC OVERLAYABLE
   CODE SIZE        =    916    ----
   CONSTANT SIZE    =   ----    ----
   XDATA SIZE       =      3      30
   PDATA SIZE       =   ----    ----
   DATA SIZE        =   ----    ----
   IDATA SIZE       =   ----    ----
   BIT SIZE         =   ----    ----
END OF MODULE INFORMATION.


C51 COMPILATION COMPLETE.  0 WARNING(S),  0 ERROR(S)
